{
  "contractName": "Oracle",
  "abi": [
    {
      "inputs": [
        {
          "internalType": "address",
          "name": "factory_",
          "type": "address"
        },
        {
          "internalType": "bytes32",
          "name": "INIT_CODE_HASH_",
          "type": "bytes32"
        },
        {
          "internalType": "address",
          "name": "priceUpdater_",
          "type": "address"
        }
      ],
      "stateMutability": "nonpayable",
      "type": "constructor"
    },
    {
      "inputs": [],
      "name": "CYCLE",
      "outputs": [
        {
          "internalType": "uint256",
          "name": "",
          "type": "uint256"
        }
      ],
      "stateMutability": "view",
      "type": "function",
      "constant": true
    },
    {
      "inputs": [],
      "name": "factory",
      "outputs": [
        {
          "internalType": "address",
          "name": "",
          "type": "address"
        }
      ],
      "stateMutability": "view",
      "type": "function",
      "constant": true
    },
    {
      "inputs": [
        {
          "internalType": "address",
          "name": "",
          "type": "address"
        }
      ],
      "name": "pairObservations",
      "outputs": [
        {
          "internalType": "uint256",
          "name": "timestamp",
          "type": "uint256"
        },
        {
          "internalType": "uint256",
          "name": "price0Cumulative",
          "type": "uint256"
        },
        {
          "internalType": "uint256",
          "name": "price1Cumulative",
          "type": "uint256"
        }
      ],
      "stateMutability": "view",
      "type": "function",
      "constant": true
    },
    {
      "inputs": [],
      "name": "priceUpdater",
      "outputs": [
        {
          "internalType": "address",
          "name": "",
          "type": "address"
        }
      ],
      "stateMutability": "view",
      "type": "function",
      "constant": true
    },
    {
      "inputs": [
        {
          "internalType": "address",
          "name": "tokenA",
          "type": "address"
        },
        {
          "internalType": "address",
          "name": "tokenB",
          "type": "address"
        }
      ],
      "name": "sortTokens",
      "outputs": [
        {
          "internalType": "address",
          "name": "token0",
          "type": "address"
        },
        {
          "internalType": "address",
          "name": "token1",
          "type": "address"
        }
      ],
      "stateMutability": "pure",
      "type": "function",
      "constant": true
    },
    {
      "inputs": [
        {
          "internalType": "address",
          "name": "tokenA",
          "type": "address"
        },
        {
          "internalType": "address",
          "name": "tokenB",
          "type": "address"
        }
      ],
      "name": "pairFor",
      "outputs": [
        {
          "internalType": "address",
          "name": "pair",
          "type": "address"
        }
      ],
      "stateMutability": "view",
      "type": "function",
      "constant": true
    },
    {
      "inputs": [
        {
          "internalType": "address",
          "name": "tokenA",
          "type": "address"
        },
        {
          "internalType": "address",
          "name": "tokenB",
          "type": "address"
        }
      ],
      "name": "update",
      "outputs": [],
      "stateMutability": "nonpayable",
      "type": "function"
    },
    {
      "inputs": [
        {
          "internalType": "address",
          "name": "tokenIn",
          "type": "address"
        },
        {
          "internalType": "uint256",
          "name": "amountIn",
          "type": "uint256"
        },
        {
          "internalType": "address",
          "name": "tokenOut",
          "type": "address"
        }
      ],
      "name": "consult",
      "outputs": [
        {
          "internalType": "uint256",
          "name": "amountOut",
          "type": "uint256"
        }
      ],
      "stateMutability": "view",
      "type": "function",
      "constant": true
    }
  ],
  "bytecode": "0x60a060405234801561001057600080fd5b50604051610d2c380380610d2c8339818101604052606081101561003357600080fd5b5080516020820151604090920151606082901b6001600160601b031916608052600192909255600080546001600160a01b0319166001600160a01b03938416178155911690610c989061009490398061056652806105c35250610c986000f3fe608060405234801561001057600080fd5b50600436106100885760003560e01c80639e8d48d01161005b5780639e8d48d014610205578063c45a01551461020d578063c640752d14610215578063fc612a8d1461025257610088565b8063402e1abf1461008d578063544caa56146100de5780638c86f1e41461014c57806396ed28f9146101a1575b600080fd5b6100c0600480360360208110156100a357600080fd5b503573ffffffffffffffffffffffffffffffffffffffff1661025a565b60408051938452602084019290925282820152519081900360600190f35b610119600480360360408110156100f457600080fd5b5073ffffffffffffffffffffffffffffffffffffffff8135811691602001351661027a565b6040805173ffffffffffffffffffffffffffffffffffffffff938416815291909216602082015281519081900390910190f35b61018f6004803603606081101561016257600080fd5b5073ffffffffffffffffffffffffffffffffffffffff8135811691602081013591604090910135166103cd565b60408051918252519081900360200190f35b6101dc600480360360408110156101b757600080fd5b5073ffffffffffffffffffffffffffffffffffffffff813581169160200135166104d7565b6040805173ffffffffffffffffffffffffffffffffffffffff9092168252519081900360200190f35b61018f6105bb565b6101dc6105c1565b6102506004803603604081101561022b57600080fd5b5073ffffffffffffffffffffffffffffffffffffffff813581169160200135166105e5565b005b6101dc610728565b600260208190526000918252604090912080546001820154919092015483565b6000808273ffffffffffffffffffffffffffffffffffffffff168473ffffffffffffffffffffffffffffffffffffffff161415610302576040517f08c379a0000000000000000000000000000000000000000000000000000000008152600401808060200182810382526024815260200180610c1c6024913960400191505060405180910390fd5b8273ffffffffffffffffffffffffffffffffffffffff168473ffffffffffffffffffffffffffffffffffffffff161061033c57828461033f565b83835b909250905073ffffffffffffffffffffffffffffffffffffffff82166103c657604080517f08c379a000000000000000000000000000000000000000000000000000000000815260206004820152601d60248201527f53544c5953776170466163746f72793a205a45524f5f41444452455353000000604482015290519081900360640190fd5b9250929050565b6000806103da85846104d7565b73ffffffffffffffffffffffffffffffffffffffff81166000908152600260205260409020600181015491925090158061043b575073ffffffffffffffffffffffffffffffffffffffff821660009081526002602081905260409091200154155b1561044b576000925050506104d0565b8054420360008061045b85610744565b5091509150600061046c8a8961027a565b5090508973ffffffffffffffffffffffffffffffffffffffff168173ffffffffffffffffffffffffffffffffffffffff1614156104c0576104b3856001015484868c610996565b96505050505050506104d0565b6104b3856002015483868c610996565b9392505050565b60008060006104e6858561027a565b604080517fffffffffffffffffffffffffffffffffffffffff000000000000000000000000606094851b811660208084019190915293851b81166034830152825160288184030181526048830184528051908501206001547fff0000000000000000000000000000000000000000000000000000000000000060688501527f000000000000000000000000000000000000000000000000000000000000000090961b9091166069830152607d820152609d808201949094528151808203909401845260bd019052815191012095945050505050565b61038481565b7f000000000000000000000000000000000000000000000000000000000000000081565b60005473ffffffffffffffffffffffffffffffffffffffff163314610655576040517f08c379a0000000000000000000000000000000000000000000000000000000008152600401808060200182810382526037815260200180610be56037913960400191505060405180910390fd5b600061066183836104d7565b73ffffffffffffffffffffffffffffffffffffffff8116600090815260026020526040902080549192509042036103848110156106ff57604080517f08c379a000000000000000000000000000000000000000000000000000000000815260206004820152601e60248201527f53544c594f7261636c653a20504552494f445f4e4f545f454c41505345440000604482015290519081900360640190fd5b60008061070b85610744565b504286556001860191909155600290940193909355505050505050565b60005473ffffffffffffffffffffffffffffffffffffffff1681565b6000806000610751610a09565b90508373ffffffffffffffffffffffffffffffffffffffff16635909c0d56040518163ffffffff1660e01b815260040160206040518083038186803b15801561079957600080fd5b505afa1580156107ad573d6000803e3d6000fd5b505050506040513d60208110156107c357600080fd5b5051604080517f5a3d5493000000000000000000000000000000000000000000000000000000008152905191945073ffffffffffffffffffffffffffffffffffffffff861691635a3d549391600480820192602092909190829003018186803b15801561082f57600080fd5b505afa158015610843573d6000803e3d6000fd5b505050506040513d602081101561085957600080fd5b5051604080517f0902f1ac00000000000000000000000000000000000000000000000000000000815290519193506000918291829173ffffffffffffffffffffffffffffffffffffffff891691630902f1ac916004808301926060929190829003018186803b1580156108cb57600080fd5b505afa1580156108df573d6000803e3d6000fd5b505050506040513d60608110156108f557600080fd5b5080516020820151604090920151909450909250905063ffffffff8082169085161461098c5780840363ffffffff811661092f8486610a13565b517bffffffffffffffffffffffffffffffffffffffffffffffffffffffff1602969096019563ffffffff81166109658585610a13565b517bffffffffffffffffffffffffffffffffffffffffffffffffffffffff16029590950194505b5050509193909250565b60006109a0610bbf565b604051806020016040528085888803816109b657fe5b047bffffffffffffffffffffffffffffffffffffffffffffffffffffffff16905290506109eb6109e68285610b0b565b610bb8565b71ffffffffffffffffffffffffffffffffffff169695505050505050565b63ffffffff421690565b610a1b610bbf565b6000826dffffffffffffffffffffffffffff1611610a9a57604080517f08c379a000000000000000000000000000000000000000000000000000000000815260206004820152601760248201527f4669786564506f696e743a204449565f42595f5a45524f000000000000000000604482015290519081900360640190fd5b6040805160208101909152806dffffffffffffffffffffffffffff84167bffffffffffffffffffffffffffff0000000000000000000000000000607087901b1681610ae157fe5b047bffffffffffffffffffffffffffffffffffffffffffffffffffffffff16815250905092915050565b610b13610bd1565b6000821580610b4e57505082517bffffffffffffffffffffffffffffffffffffffffffffffffffffffff1682810290838281610b4b57fe5b04145b610ba3576040517f08c379a0000000000000000000000000000000000000000000000000000000008152600401808060200182810382526023815260200180610c406023913960400191505060405180910390fd5b60408051602081019091529081529392505050565b5160701c90565b60408051602081019091526000815290565b604051806020016040528060008152509056fe53544c594f7261636c653a2050726963652063616e20757064617465206f6e6c792070726963652075706461746572206164647265737353544c5953776170466163746f72793a204944454e544943414c5f4144445245535345534669786564506f696e743a204d554c5449504c49434154494f4e5f4f564552464c4f57a26469706673582212209bb1abb89d5dc95c4e55fe45ed239195bd67da5f8c2bdae1d01c8a2d7273d36c64736f6c63430006060033",
  "immutableReferences": {
    "18": [
      {
        "length": 32,
        "start": 1382
      },
      {
        "length": 32,
        "start": 1475
      }
    ]
  },
  "source": "pragma solidity =0.6.6;\n\nimport \"./libs/SafeMath.sol\";\nimport \"./libs/FixedPoint.sol\";\nimport \"./libs/OracleLibrary.sol\";\n\ncontract Oracle {\n    using FixedPoint for *;\n    using SafeMath for uint;\n\n    struct Observation {\n        uint timestamp;\n        uint price0Cumulative;\n        uint price1Cumulative;\n    }\n\n    address public immutable factory;\n    address public priceUpdater;\n    uint public constant CYCLE = 15 minutes;\n\n    bytes32 INIT_CODE_HASH;\n\n    // mapping from pair address to a list of price observations of that pair\n    mapping(address => Observation) public pairObservations;\n\n    constructor(address factory_, bytes32 INIT_CODE_HASH_, address priceUpdater_) public {\n        factory = factory_;\n        INIT_CODE_HASH = INIT_CODE_HASH_;\n        priceUpdater = priceUpdater_;\n    }\n\n    function sortTokens(address tokenA, address tokenB) public pure returns (address token0, address token1) {\n        require(tokenA != tokenB, 'STLYSwapFactory: IDENTICAL_ADDRESSES');\n        (token0, token1) = tokenA < tokenB ? (tokenA, tokenB) : (tokenB, tokenA);\n        require(token0 != address(0), 'STLYSwapFactory: ZERO_ADDRESS');\n    }\n\n    function pairFor(address tokenA, address tokenB) public view returns (address pair) {\n        (address token0, address token1) = sortTokens(tokenA, tokenB);\n        pair = address(uint(keccak256(abi.encodePacked(\n                hex'ff',\n                factory,\n                keccak256(abi.encodePacked(token0, token1)),\n                INIT_CODE_HASH\n            ))));\n    }\n\n    function update(address tokenA, address tokenB) external {\n        require(msg.sender == priceUpdater, 'STLYOracle: Price can update only price updater address');\n        address pair = pairFor(tokenA, tokenB);\n\n        Observation storage observation = pairObservations[pair];\n        uint timeElapsed = block.timestamp - observation.timestamp;\n        require(timeElapsed >= CYCLE, 'STLYOracle: PERIOD_NOT_ELAPSED');\n        (uint price0Cumulative, uint price1Cumulative,) = STLYOracleLibrary.currentCumulativePrices(pair);\n        observation.timestamp = block.timestamp;\n        observation.price0Cumulative = price0Cumulative;\n        observation.price1Cumulative = price1Cumulative;\n    }\n\n\n    function computeAmountOut(\n        uint priceCumulativeStart, uint priceCumulativeEnd,\n        uint timeElapsed, uint amountIn\n    ) private pure returns (uint amountOut) {\n        FixedPoint.uq112x112 memory priceAverage = FixedPoint.uq112x112(\n            uint224((priceCumulativeEnd - priceCumulativeStart) / timeElapsed)\n        );\n        amountOut = priceAverage.mul(amountIn).decode144();\n    }\n\n\n    function consult(address tokenIn, uint amountIn, address tokenOut) external view returns (uint amountOut) {\n        address pair = pairFor(tokenIn, tokenOut);\n        Observation storage observation = pairObservations[pair];\n\n        if (pairObservations[pair].price0Cumulative == 0 || pairObservations[pair].price1Cumulative == 0){\n            return 0;\n        }\n\n        uint timeElapsed = block.timestamp - observation.timestamp;\n        (uint price0Cumulative, uint price1Cumulative,) = STLYOracleLibrary.currentCumulativePrices(pair);\n        (address token0,) = sortTokens(tokenIn, tokenOut);\n\n        if (token0 == tokenIn) {\n            return computeAmountOut(observation.price0Cumulative, price0Cumulative, timeElapsed, amountIn);\n        } else {\n            return computeAmountOut(observation.price1Cumulative, price1Cumulative, timeElapsed, amountIn);\n        }\n    }\n}",
  "sourcePath": "/home/ubuntu/work/starly_finance_project/starly-swap-fee-reward/contracts/Oracle.sol",
  "compiler": {
    "name": "solc",
    "version": "0.6.6+commit.6c089d02.Emscripten.clang"
  },
  "schemaVersion": "3.4.4",
  "updatedAt": "2022-01-28T11:56:56.123Z",
  "networkType": "ethereum",
  "devdoc": {
    "methods": {}
  },
  "userdoc": {
    "methods": {}
  }
}