{
  "contractName": "SafeMath",
  "abi": [
    {
      "inputs": [],
      "name": "wad",
      "outputs": [
        {
          "internalType": "uint256",
          "name": "",
          "type": "uint256"
        }
      ],
      "stateMutability": "pure",
      "type": "function"
    },
    {
      "inputs": [],
      "name": "ray",
      "outputs": [
        {
          "internalType": "uint256",
          "name": "",
          "type": "uint256"
        }
      ],
      "stateMutability": "pure",
      "type": "function"
    }
  ],
  "bytecode": "0x60b2610025600b82828239805160001a60731461001857fe5b30600052607381538281f3fe7300000000000000000000000000000000000000003014608060405260043610603d5760003560e01c8063416a8b201460425780637df38c5b14605a575b600080fd5b60486060565b60408051918252519081900360200190f35b60486070565b6b033b2e3c9fd0803ce800000090565b670de0b6b3a76400009056fea26469706673582212208cda76d807516e56d1c75dd06e3fa10e4161064569d1ca141f140209621811b864736f6c63430006060033",
  "immutableReferences": {},
  "source": "pragma solidity 0.6.6;\nlibrary SafeMath {\n    uint256 constant WAD = 10 ** 18;\n    uint256 constant RAY = 10 ** 27;\n\n    function wad() public pure returns (uint256) {\n        return WAD;\n    }\n\n    function ray() public pure returns (uint256) {\n        return RAY;\n    }\n\n    function add(uint256 a, uint256 b) internal pure returns (uint256) {\n        uint256 c = a + b;\n        require(c >= a, \"SafeMath: addition overflow\");\n\n        return c;\n    }\n\n    function sub(uint256 a, uint256 b) internal pure returns (uint256) {\n        return sub(a, b, \"SafeMath: subtraction overflow\");\n    }\n\n    function sub(uint256 a, uint256 b, string memory errorMessage) internal pure returns (uint256) {\n        require(b <= a, errorMessage);\n        uint256 c = a - b;\n\n        return c;\n    }\n\n    function mul(uint256 a, uint256 b) internal pure returns (uint256) {\n        // Gas optimization: this is cheaper than requiring 'a' not being zero, but the\n        // benefit is lost if 'b' is also tested.\n        // See: https://github.com/OpenZeppelin/openzeppelin-contracts/pull/522\n        if (a == 0) {\n            return 0;\n        }\n\n        uint256 c = a * b;\n        require(c / a == b, \"SafeMath: multiplication overflow\");\n\n        return c;\n    }\n\n    function div(uint256 a, uint256 b) internal pure returns (uint256) {\n        return div(a, b, \"SafeMath: division by zero\");\n    }\n\n    function div(uint256 a, uint256 b, string memory errorMessage) internal pure returns (uint256) {\n        // Solidity only automatically asserts when dividing by 0\n        require(b > 0, errorMessage);\n        uint256 c = a / b;\n        // assert(a == b * c + a % b); // There is no case in which this doesn't hold\n\n        return c;\n    }\n\n    function mod(uint256 a, uint256 b) internal pure returns (uint256) {\n        return mod(a, b, \"SafeMath: modulo by zero\");\n    }\n\n    function mod(uint256 a, uint256 b, string memory errorMessage) internal pure returns (uint256) {\n        require(b != 0, errorMessage);\n        return a % b;\n    }\n\n    function min(uint256 a, uint256 b) internal pure returns (uint256) {\n        return a <= b ? a : b;\n    }\n\n    function max(uint256 a, uint256 b) internal pure returns (uint256) {\n        return a >= b ? a : b;\n    }\n\n    function sqrt(uint256 a) internal pure returns (uint256 b) {\n        if (a > 3) {\n            b = a;\n            uint256 x = a / 2 + 1;\n            while (x < b) {\n                b = x;\n                x = (a / x + x) / 2;\n            }\n        } else if (a != 0) {\n            b = 1;\n        }\n    }\n\n    function wmul(uint256 a, uint256 b) internal pure returns (uint256) {\n        return mul(a, b) / WAD;\n    }\n\n    function wmulRound(uint256 a, uint256 b) internal pure returns (uint256) {\n        return add(mul(a, b), WAD / 2) / WAD;\n    }\n\n    function rmul(uint256 a, uint256 b) internal pure returns (uint256) {\n        return mul(a, b) / RAY;\n    }\n\n    function rmulRound(uint256 a, uint256 b) internal pure returns (uint256) {\n        return add(mul(a, b), RAY / 2) / RAY;\n    }\n\n    function wdiv(uint256 a, uint256 b) internal pure returns (uint256) {\n        return div(mul(a, WAD), b);\n    }\n\n    function wdivRound(uint256 a, uint256 b) internal pure returns (uint256) {\n        return add(mul(a, WAD), b / 2) / b;\n    }\n\n    function rdiv(uint256 a, uint256 b) internal pure returns (uint256) {\n        return div(mul(a, RAY), b);\n    }\n\n    function rdivRound(uint256 a, uint256 b) internal pure returns (uint256) {\n        return add(mul(a, RAY), b / 2) / b;\n    }\n\n    function wpow(uint256 x, uint256 n) internal pure returns (uint256) {\n        uint256 result = WAD;\n        while (n > 0) {\n            if (n % 2 != 0) {\n                result = wmul(result, x);\n            }\n            x = wmul(x, x);\n            n /= 2;\n        }\n        return result;\n    }\n\n    function rpow(uint256 x, uint256 n) internal pure returns (uint256) {\n        uint256 result = RAY;\n        while (n > 0) {\n            if (n % 2 != 0) {\n                result = rmul(result, x);\n            }\n            x = rmul(x, x);\n            n /= 2;\n        }\n        return result;\n    }\n}",
  "sourcePath": "/home/ubuntu/work/starly_finance_project/starly-swap-fee-reward/contracts/libs/SafeMath.sol",
  "compiler": {
    "name": "solc",
    "version": "0.6.6+commit.6c089d02.Emscripten.clang"
  },
  "schemaVersion": "3.4.4",
  "updatedAt": "2022-01-26T11:41:33.473Z",
  "devdoc": {
    "methods": {}
  },
  "userdoc": {
    "methods": {}
  }
}