{
  "contractName": "SwapFeeReward",
  "abi": [
    {
      "inputs": [
        {
          "internalType": "address",
          "name": "_factory",
          "type": "address"
        },
        {
          "internalType": "address",
          "name": "_router",
          "type": "address"
        },
        {
          "internalType": "bytes32",
          "name": "_INIT_CODE_HASH",
          "type": "bytes32"
        },
        {
          "internalType": "contract IStlyToken",
          "name": "_stlyToken",
          "type": "address"
        },
        {
          "internalType": "contract IOracle",
          "name": "_Oracle",
          "type": "address"
        },
        {
          "internalType": "address",
          "name": "_targetToken",
          "type": "address"
        }
      ],
      "stateMutability": "nonpayable",
      "type": "constructor"
    },
    {
      "anonymous": false,
      "inputs": [
        {
          "indexed": true,
          "internalType": "address",
          "name": "previousOwner",
          "type": "address"
        },
        {
          "indexed": true,
          "internalType": "address",
          "name": "newOwner",
          "type": "address"
        }
      ],
      "name": "OwnershipTransferred",
      "type": "event"
    },
    {
      "anonymous": false,
      "inputs": [
        {
          "indexed": false,
          "internalType": "address",
          "name": "account",
          "type": "address"
        },
        {
          "indexed": false,
          "internalType": "address",
          "name": "input",
          "type": "address"
        },
        {
          "indexed": false,
          "internalType": "address",
          "name": "output",
          "type": "address"
        },
        {
          "indexed": false,
          "internalType": "uint256",
          "name": "amount",
          "type": "uint256"
        },
        {
          "indexed": false,
          "internalType": "uint256",
          "name": "quantity",
          "type": "uint256"
        }
      ],
      "name": "Rewarded",
      "type": "event"
    },
    {
      "anonymous": false,
      "inputs": [
        {
          "indexed": false,
          "internalType": "address",
          "name": "userAddress",
          "type": "address"
        },
        {
          "indexed": false,
          "internalType": "uint256",
          "name": "amount",
          "type": "uint256"
        }
      ],
      "name": "Withdraw",
      "type": "event"
    },
    {
      "inputs": [],
      "name": "INIT_CODE_HASH",
      "outputs": [
        {
          "internalType": "bytes32",
          "name": "",
          "type": "bytes32"
        }
      ],
      "stateMutability": "view",
      "type": "function",
      "constant": true
    },
    {
      "inputs": [],
      "name": "currentPhase",
      "outputs": [
        {
          "internalType": "uint256",
          "name": "",
          "type": "uint256"
        }
      ],
      "stateMutability": "view",
      "type": "function",
      "constant": true
    },
    {
      "inputs": [],
      "name": "factory",
      "outputs": [
        {
          "internalType": "address",
          "name": "",
          "type": "address"
        }
      ],
      "stateMutability": "view",
      "type": "function",
      "constant": true
    },
    {
      "inputs": [
        {
          "internalType": "address",
          "name": "account",
          "type": "address"
        }
      ],
      "name": "isOwner",
      "outputs": [
        {
          "internalType": "bool",
          "name": "",
          "type": "bool"
        }
      ],
      "stateMutability": "view",
      "type": "function",
      "constant": true
    },
    {
      "inputs": [],
      "name": "maxMiningAmount",
      "outputs": [
        {
          "internalType": "uint256",
          "name": "",
          "type": "uint256"
        }
      ],
      "stateMutability": "view",
      "type": "function",
      "constant": true
    },
    {
      "inputs": [],
      "name": "maxMiningInPhase",
      "outputs": [
        {
          "internalType": "uint256",
          "name": "",
          "type": "uint256"
        }
      ],
      "stateMutability": "view",
      "type": "function",
      "constant": true
    },
    {
      "inputs": [
        {
          "internalType": "address",
          "name": "",
          "type": "address"
        }
      ],
      "name": "nonces",
      "outputs": [
        {
          "internalType": "uint256",
          "name": "",
          "type": "uint256"
        }
      ],
      "stateMutability": "view",
      "type": "function",
      "constant": true
    },
    {
      "inputs": [],
      "name": "oracle",
      "outputs": [
        {
          "internalType": "contract IOracle",
          "name": "",
          "type": "address"
        }
      ],
      "stateMutability": "view",
      "type": "function",
      "constant": true
    },
    {
      "inputs": [],
      "name": "owner",
      "outputs": [
        {
          "internalType": "address",
          "name": "",
          "type": "address"
        }
      ],
      "stateMutability": "view",
      "type": "function",
      "constant": true
    },
    {
      "inputs": [
        {
          "internalType": "address",
          "name": "",
          "type": "address"
        }
      ],
      "name": "pairOfPid",
      "outputs": [
        {
          "internalType": "uint256",
          "name": "",
          "type": "uint256"
        }
      ],
      "stateMutability": "view",
      "type": "function",
      "constant": true
    },
    {
      "inputs": [
        {
          "internalType": "uint256",
          "name": "",
          "type": "uint256"
        }
      ],
      "name": "pairsList",
      "outputs": [
        {
          "internalType": "address",
          "name": "pair",
          "type": "address"
        },
        {
          "internalType": "uint256",
          "name": "percentReward",
          "type": "uint256"
        },
        {
          "internalType": "bool",
          "name": "enabled",
          "type": "bool"
        }
      ],
      "stateMutability": "view",
      "type": "function",
      "constant": true
    },
    {
      "inputs": [],
      "name": "renounceOwnership",
      "outputs": [],
      "stateMutability": "nonpayable",
      "type": "function"
    },
    {
      "inputs": [],
      "name": "router",
      "outputs": [
        {
          "internalType": "address",
          "name": "",
          "type": "address"
        }
      ],
      "stateMutability": "view",
      "type": "function",
      "constant": true
    },
    {
      "inputs": [],
      "name": "stlyToken",
      "outputs": [
        {
          "internalType": "contract IStlyToken",
          "name": "",
          "type": "address"
        }
      ],
      "stateMutability": "view",
      "type": "function",
      "constant": true
    },
    {
      "inputs": [],
      "name": "targetToken",
      "outputs": [
        {
          "internalType": "address",
          "name": "",
          "type": "address"
        }
      ],
      "stateMutability": "view",
      "type": "function",
      "constant": true
    },
    {
      "inputs": [],
      "name": "totalMined",
      "outputs": [
        {
          "internalType": "uint256",
          "name": "",
          "type": "uint256"
        }
      ],
      "stateMutability": "view",
      "type": "function",
      "constant": true
    },
    {
      "inputs": [
        {
          "internalType": "address",
          "name": "newOwner",
          "type": "address"
        }
      ],
      "name": "transferOwnership",
      "outputs": [],
      "stateMutability": "nonpayable",
      "type": "function"
    },
    {
      "inputs": [
        {
          "internalType": "address",
          "name": "tokenA",
          "type": "address"
        },
        {
          "internalType": "address",
          "name": "tokenB",
          "type": "address"
        }
      ],
      "name": "sortTokens",
      "outputs": [
        {
          "internalType": "address",
          "name": "token0",
          "type": "address"
        },
        {
          "internalType": "address",
          "name": "token1",
          "type": "address"
        }
      ],
      "stateMutability": "pure",
      "type": "function",
      "constant": true
    },
    {
      "inputs": [
        {
          "internalType": "address",
          "name": "tokenA",
          "type": "address"
        },
        {
          "internalType": "address",
          "name": "tokenB",
          "type": "address"
        }
      ],
      "name": "pairFor",
      "outputs": [
        {
          "internalType": "address",
          "name": "pair",
          "type": "address"
        }
      ],
      "stateMutability": "view",
      "type": "function",
      "constant": true
    },
    {
      "inputs": [
        {
          "internalType": "uint256",
          "name": "_newPhase",
          "type": "uint256"
        }
      ],
      "name": "setPhase",
      "outputs": [
        {
          "internalType": "bool",
          "name": "",
          "type": "bool"
        }
      ],
      "stateMutability": "nonpayable",
      "type": "function"
    },
    {
      "inputs": [
        {
          "internalType": "address",
          "name": "tokenA",
          "type": "address"
        },
        {
          "internalType": "address",
          "name": "tokenB",
          "type": "address"
        }
      ],
      "name": "checkPairExist",
      "outputs": [
        {
          "internalType": "bool",
          "name": "",
          "type": "bool"
        }
      ],
      "stateMutability": "view",
      "type": "function",
      "constant": true
    },
    {
      "inputs": [
        {
          "internalType": "address",
          "name": "account",
          "type": "address"
        },
        {
          "internalType": "address",
          "name": "input",
          "type": "address"
        },
        {
          "internalType": "address",
          "name": "output",
          "type": "address"
        },
        {
          "internalType": "uint256",
          "name": "amount",
          "type": "uint256"
        }
      ],
      "name": "swap",
      "outputs": [
        {
          "internalType": "bool",
          "name": "",
          "type": "bool"
        }
      ],
      "stateMutability": "nonpayable",
      "type": "function"
    },
    {
      "inputs": [
        {
          "internalType": "address",
          "name": "account",
          "type": "address"
        }
      ],
      "name": "rewardBalance",
      "outputs": [
        {
          "internalType": "uint256",
          "name": "",
          "type": "uint256"
        }
      ],
      "stateMutability": "view",
      "type": "function",
      "constant": true
    },
    {
      "inputs": [
        {
          "internalType": "uint8",
          "name": "v",
          "type": "uint8"
        },
        {
          "internalType": "bytes32",
          "name": "r",
          "type": "bytes32"
        },
        {
          "internalType": "bytes32",
          "name": "s",
          "type": "bytes32"
        }
      ],
      "name": "withdraw",
      "outputs": [
        {
          "internalType": "bool",
          "name": "",
          "type": "bool"
        }
      ],
      "stateMutability": "nonpayable",
      "type": "function"
    },
    {
      "inputs": [
        {
          "internalType": "address",
          "name": "outputToken",
          "type": "address"
        },
        {
          "internalType": "uint256",
          "name": "outputAmount",
          "type": "uint256"
        },
        {
          "internalType": "address",
          "name": "anchorToken",
          "type": "address"
        }
      ],
      "name": "getQuantity",
      "outputs": [
        {
          "internalType": "uint256",
          "name": "",
          "type": "uint256"
        }
      ],
      "stateMutability": "view",
      "type": "function",
      "constant": true
    },
    {
      "inputs": [
        {
          "internalType": "address",
          "name": "_addToken",
          "type": "address"
        }
      ],
      "name": "addWhitelist",
      "outputs": [
        {
          "internalType": "bool",
          "name": "",
          "type": "bool"
        }
      ],
      "stateMutability": "nonpayable",
      "type": "function"
    },
    {
      "inputs": [
        {
          "internalType": "address",
          "name": "_delToken",
          "type": "address"
        }
      ],
      "name": "delWhitelist",
      "outputs": [
        {
          "internalType": "bool",
          "name": "",
          "type": "bool"
        }
      ],
      "stateMutability": "nonpayable",
      "type": "function"
    },
    {
      "inputs": [],
      "name": "getWhitelistLength",
      "outputs": [
        {
          "internalType": "uint256",
          "name": "",
          "type": "uint256"
        }
      ],
      "stateMutability": "view",
      "type": "function",
      "constant": true
    },
    {
      "inputs": [
        {
          "internalType": "address",
          "name": "_token",
          "type": "address"
        }
      ],
      "name": "isWhitelist",
      "outputs": [
        {
          "internalType": "bool",
          "name": "",
          "type": "bool"
        }
      ],
      "stateMutability": "view",
      "type": "function",
      "constant": true
    },
    {
      "inputs": [
        {
          "internalType": "uint256",
          "name": "_index",
          "type": "uint256"
        }
      ],
      "name": "getWhitelist",
      "outputs": [
        {
          "internalType": "address",
          "name": "",
          "type": "address"
        }
      ],
      "stateMutability": "view",
      "type": "function",
      "constant": true
    },
    {
      "inputs": [
        {
          "internalType": "address",
          "name": "newRouter",
          "type": "address"
        }
      ],
      "name": "setRouter",
      "outputs": [],
      "stateMutability": "nonpayable",
      "type": "function"
    },
    {
      "inputs": [
        {
          "internalType": "contract IOracle",
          "name": "_oracle",
          "type": "address"
        }
      ],
      "name": "setOracle",
      "outputs": [],
      "stateMutability": "nonpayable",
      "type": "function"
    },
    {
      "inputs": [
        {
          "internalType": "address",
          "name": "_factory",
          "type": "address"
        }
      ],
      "name": "setFactory",
      "outputs": [],
      "stateMutability": "nonpayable",
      "type": "function"
    },
    {
      "inputs": [
        {
          "internalType": "bytes32",
          "name": "_INIT_CODE_HASH",
          "type": "bytes32"
        }
      ],
      "name": "setInitCodeHash",
      "outputs": [],
      "stateMutability": "nonpayable",
      "type": "function"
    },
    {
      "inputs": [],
      "name": "pairsListLength",
      "outputs": [
        {
          "internalType": "uint256",
          "name": "",
          "type": "uint256"
        }
      ],
      "stateMutability": "view",
      "type": "function",
      "constant": true
    },
    {
      "inputs": [
        {
          "internalType": "uint256",
          "name": "_percentReward",
          "type": "uint256"
        },
        {
          "internalType": "address",
          "name": "_pair",
          "type": "address"
        }
      ],
      "name": "addPair",
      "outputs": [],
      "stateMutability": "nonpayable",
      "type": "function"
    },
    {
      "inputs": [
        {
          "internalType": "uint256",
          "name": "_pid",
          "type": "uint256"
        },
        {
          "internalType": "uint256",
          "name": "_percentReward",
          "type": "uint256"
        }
      ],
      "name": "setPair",
      "outputs": [],
      "stateMutability": "nonpayable",
      "type": "function"
    },
    {
      "inputs": [
        {
          "internalType": "uint256",
          "name": "_pid",
          "type": "uint256"
        },
        {
          "internalType": "bool",
          "name": "_enabled",
          "type": "bool"
        }
      ],
      "name": "setPairEnabled",
      "outputs": [],
      "stateMutability": "nonpayable",
      "type": "function"
    }
  ],
  "bytecode": "0x60806040526a92693539fbb04c5100000060065569010f0cf064dd592000006007556001600855600060095534801561003757600080fd5b50604051612e1d380380612e1d833981810160405260c081101561005a57600080fd5b50805160208201516040808401516060850151608086015160a090960151600080546001600160a01b031916331780825594519697959693959294929391926001600160a01b0316917f8be0079c531659141344cd1fd0a4f28419497f9722a3daafe3b4186f6b6457e0908290a3600380546001600160a01b03199081166001600160a01b039889161790915560048054821696881696909617909555600593909355600a8054851692861692909217909155600b80548416918516919091179055600c80549092169216919091179055612ce38061013a6000396000f3fe608060405234801561001057600080fd5b50600436106102925760003560e01c80638da5cb5b11610160578063c0d78655116100d8578063f2fde38b1161008c578063f887ea4011610071578063f887ea401461081c578063f915f5c414610824578063ff08753b1461084957610292565b8063f2fde38b146107b6578063f80f5dd5146107e957610292565b8063c683630d116100bd578063c683630d1461071e578063c708ba0c14610751578063cdc9b9261461078a57610292565b8063c0d78655146106e3578063c45a01551461071657610292565b8063a13202e91161012f578063a9678a1811610114578063a9678a181461063c578063b9e816c714610685578063bfbee59f146106c057610292565b8063a13202e9146105f1578063a7ef67f6146105f957610292565b80638da5cb5b1461055e57806396db752a1461056657806396ed28f91461058357806397ecfaab146105be57610292565b8063544caa561161020e578063715018a6116101c25780637dc0d1d0116101a75780637dc0d1d01461051b5780637ecebe00146105235780638798df5b1461055657610292565b8063715018a6146104e05780637adbf973146104e857610292565b80635bb47808116101f35780635bb478081461042657806367b40cf7146104595780636a58f23f1461048c57610292565b8063544caa56146103b05780635556db651461041e57610292565b80632c9dc159116102655780632f54bf6e1161024a5780632f54bf6e14610344578063327107f7146103775780633ebccc91146103a857610292565b80632c9dc159146102f45780632cc826551461031357610292565b80630495de5014610297578063055ad42e146102dc57806313b1dc42146102e4578063257671f5146102ec575b600080fd5b6102ca600480360360208110156102ad57600080fd5b503573ffffffffffffffffffffffffffffffffffffffff16610851565b60408051918252519081900360200190f35b6102ca610863565b6102ca610869565b6102ca61086f565b6103116004803603602081101561030a57600080fd5b5035610875565b005b6103306004803603602081101561032957600080fd5b50356108ee565b604080519115158252519081900360200190f35b6103306004803603602081101561035a57600080fd5b503573ffffffffffffffffffffffffffffffffffffffff1661096d565b61037f61098e565b6040805173ffffffffffffffffffffffffffffffffffffffff9092168252519081900360200190f35b61037f6109aa565b6103eb600480360360408110156103c657600080fd5b5073ffffffffffffffffffffffffffffffffffffffff813581169160200135166109c6565b6040805173ffffffffffffffffffffffffffffffffffffffff938416815291909216602082015281519081900390910190f35b6102ca610b19565b6103116004803603602081101561043c57600080fd5b503573ffffffffffffffffffffffffffffffffffffffff16610b1f565b6102ca6004803603602081101561046f57600080fd5b503573ffffffffffffffffffffffffffffffffffffffff16610c46565b6104a9600480360360208110156104a257600080fd5b5035610c6e565b6040805173ffffffffffffffffffffffffffffffffffffffff90941684526020840192909252151582820152519081900360600190f35b610311610cb8565b610311600480360360208110156104fe57600080fd5b503573ffffffffffffffffffffffffffffffffffffffff16610d9b565b61037f610ec2565b6102ca6004803603602081101561053957600080fd5b503573ffffffffffffffffffffffffffffffffffffffff16610ede565b6102ca610ef0565b61037f610ef6565b61037f6004803603602081101561057c57600080fd5b5035610f12565b61037f6004803603604081101561059957600080fd5b5073ffffffffffffffffffffffffffffffffffffffff81358116916020013516610f9e565b610330600480360360208110156105d457600080fd5b503573ffffffffffffffffffffffffffffffffffffffff16611069565b6102ca611156565b6102ca6004803603606081101561060f57600080fd5b5073ffffffffffffffffffffffffffffffffffffffff813581169160208101359160409091013516611167565b6103306004803603608081101561065257600080fd5b5073ffffffffffffffffffffffffffffffffffffffff813581169160208101358216916040820135169060600135611668565b6103306004803603604081101561069b57600080fd5b5073ffffffffffffffffffffffffffffffffffffffff81358116916020013516611926565b610311600480360360408110156106d657600080fd5b50803590602001356119b4565b610311600480360360208110156106f957600080fd5b503573ffffffffffffffffffffffffffffffffffffffff16611a4f565b61037f611b76565b6103306004803603602081101561073457600080fd5b503573ffffffffffffffffffffffffffffffffffffffff16611b92565b6103116004803603604081101561076757600080fd5b508035906020013573ffffffffffffffffffffffffffffffffffffffff16611b9f565b610330600480360360608110156107a057600080fd5b5060ff8135169060208101359060400135611dda565b610311600480360360208110156107cc57600080fd5b503573ffffffffffffffffffffffffffffffffffffffff16612030565b610330600480360360208110156107ff57600080fd5b503573ffffffffffffffffffffffffffffffffffffffff166120b0565b61037f61219d565b6103116004803603604081101561083a57600080fd5b508035906020013515156121b9565b6102ca61227f565b600f6020526000908152604090205481565b60085481565b60065481565b60055481565b61087e3361096d565b6108e957604080517f08c379a000000000000000000000000000000000000000000000000000000000815260206004820181905260248201527f4f776e61626c653a2063616c6c6572206973206e6f7420746865206f776e6572604482015290519081900360640190fd5b600555565b60006108f93361096d565b61096457604080517f08c379a000000000000000000000000000000000000000000000000000000000815260206004820181905260248201527f4f776e61626c653a2063616c6c6572206973206e6f7420746865206f776e6572604482015290519081900360640190fd5b50600855600190565b60005473ffffffffffffffffffffffffffffffffffffffff90811691161490565b600c5473ffffffffffffffffffffffffffffffffffffffff1681565b600a5473ffffffffffffffffffffffffffffffffffffffff1681565b6000808273ffffffffffffffffffffffffffffffffffffffff168473ffffffffffffffffffffffffffffffffffffffff161415610a4e576040517f08c379a0000000000000000000000000000000000000000000000000000000008152600401808060200182810382526024815260200180612c8a6024913960400191505060405180910390fd5b8273ffffffffffffffffffffffffffffffffffffffff168473ffffffffffffffffffffffffffffffffffffffff1610610a88578284610a8b565b83835b909250905073ffffffffffffffffffffffffffffffffffffffff8216610b1257604080517f08c379a000000000000000000000000000000000000000000000000000000000815260206004820152601d60248201527f53544c5953776170466163746f72793a205a45524f5f41444452455353000000604482015290519081900360640190fd5b9250929050565b60095481565b610b283361096d565b610b9357604080517f08c379a000000000000000000000000000000000000000000000000000000000815260206004820181905260248201527f4f776e61626c653a2063616c6c6572206973206e6f7420746865206f776e6572604482015290519081900360640190fd5b73ffffffffffffffffffffffffffffffffffffffff8116610bff576040517f08c379a000000000000000000000000000000000000000000000000000000000815260040180806020018281038252602b815260200180612bc0602b913960400191505060405180910390fd5b600380547fffffffffffffffffffffffff00000000000000000000000000000000000000001673ffffffffffffffffffffffffffffffffffffffff92909216919091179055565b73ffffffffffffffffffffffffffffffffffffffff166000908152600e602052604090205490565b60108181548110610c7b57fe5b600091825260209091206003909102018054600182015460029092015473ffffffffffffffffffffffffffffffffffffffff909116925060ff1683565b610cc13361096d565b610d2c57604080517f08c379a000000000000000000000000000000000000000000000000000000000815260206004820181905260248201527f4f776e61626c653a2063616c6c6572206973206e6f7420746865206f776e6572604482015290519081900360640190fd5b6000805460405173ffffffffffffffffffffffffffffffffffffffff909116907f8be0079c531659141344cd1fd0a4f28419497f9722a3daafe3b4186f6b6457e0908390a3600080547fffffffffffffffffffffffff0000000000000000000000000000000000000000169055565b610da43361096d565b610e0f57604080517f08c379a000000000000000000000000000000000000000000000000000000000815260206004820181905260248201527f4f776e61626c653a2063616c6c6572206973206e6f7420746865206f776e6572604482015290519081900360640190fd5b73ffffffffffffffffffffffffffffffffffffffff8116610e7b576040517f08c379a000000000000000000000000000000000000000000000000000000000815260040180806020018281038252602a815260200180612c18602a913960400191505060405180910390fd5b600b80547fffffffffffffffffffffffff00000000000000000000000000000000000000001673ffffffffffffffffffffffffffffffffffffffff92909216919091179055565b600b5473ffffffffffffffffffffffffffffffffffffffff1681565b600d6020526000908152604090205481565b60105490565b60005473ffffffffffffffffffffffffffffffffffffffff1690565b60006001610f1e611156565b03821115610f8d57604080517f08c379a000000000000000000000000000000000000000000000000000000000815260206004820152601f60248201527f537761704d696e696e673a20696e646578206f7574206f6620626f756e647300604482015290519081900360640190fd5b610f98600183612285565b92915050565b6000806000610fad85856109c6565b600354604080517fffffffffffffffffffffffffffffffffffffffff000000000000000000000000606095861b811660208084019190915294861b81166034830152825160288184030181526048830184528051908601206005547fff0000000000000000000000000000000000000000000000000000000000000060688501529490961b166069820152607d810194909452609d808501929092528051808503909201825260bd909301909252815191012095945050505050565b60006110743361096d565b6110df57604080517f08c379a000000000000000000000000000000000000000000000000000000000815260206004820181905260248201527f4f776e61626c653a2063616c6c6572206973206e6f7420746865206f776e6572604482015290519081900360640190fd5b73ffffffffffffffffffffffffffffffffffffffff821661114b576040517f08c379a0000000000000000000000000000000000000000000000000000000008152600401808060200182810382526025815260200180612b9b6025913960400191505060405180910390fd5b610f98600183612291565b600061116260016122b3565b905090565b60008073ffffffffffffffffffffffffffffffffffffffff858116908416141561119257508261165e565b600354604080517fe6a4390500000000000000000000000000000000000000000000000000000000815273ffffffffffffffffffffffffffffffffffffffff8881166004830152868116602483015291516000939092169163e6a4390591604480820192602092909190829003018186803b15801561121057600080fd5b505afa158015611224573d6000803e3d6000fd5b505050506040513d602081101561123a57600080fd5b505173ffffffffffffffffffffffffffffffffffffffff161480159061126557506112658584611926565b1561131f57600b54604080517f8c86f1e400000000000000000000000000000000000000000000000000000000815273ffffffffffffffffffffffffffffffffffffffff888116600483015260248201889052868116604483015291519190921691638c86f1e4916064808301926020929190829003018186803b1580156112ec57600080fd5b505afa158015611300573d6000803e3d6000fd5b505050506040513d602081101561131657600080fd5b5051905061165e565b6000611329611156565b905060005b8181101561165b57600061134182610f12565b600354604080517fe6a4390500000000000000000000000000000000000000000000000000000000815273ffffffffffffffffffffffffffffffffffffffff8c8116600483015284811660248301529151939450600093919092169163e6a43905916044808301926020929190829003018186803b1580156113c257600080fd5b505afa1580156113d6573d6000803e3d6000fd5b505050506040513d60208110156113ec57600080fd5b505173ffffffffffffffffffffffffffffffffffffffff16148015906114d05750600354604080517fe6a4390500000000000000000000000000000000000000000000000000000000815273ffffffffffffffffffffffffffffffffffffffff8481166004830152898116602483015291516000939092169163e6a4390591604480820192602092909190829003018186803b15801561148b57600080fd5b505afa15801561149f573d6000803e3d6000fd5b505050506040513d60208110156114b557600080fd5b505173ffffffffffffffffffffffffffffffffffffffff1614155b80156114e157506114e18187611926565b1561165257600b54604080517f8c86f1e400000000000000000000000000000000000000000000000000000000815273ffffffffffffffffffffffffffffffffffffffff8b81166004830152602482018b9052848116604483015291516000939290921691638c86f1e491606480820192602092909190829003018186803b15801561156c57600080fd5b505afa158015611580573d6000803e3d6000fd5b505050506040513d602081101561159657600080fd5b5051600b54604080517f8c86f1e400000000000000000000000000000000000000000000000000000000815273ffffffffffffffffffffffffffffffffffffffff8681166004830152602482018590528b811660448301529151939450911691638c86f1e491606480820192602092909190829003018186803b15801561161c57600080fd5b505afa158015611630573d6000803e3d6000fd5b505050506040513d602081101561164657600080fd5b5051945061165b915050565b5060010161132e565b50505b90505b9392505050565b60045460009073ffffffffffffffffffffffffffffffffffffffff1633146116db576040517f08c379a0000000000000000000000000000000000000000000000000000000008152600401808060200182810382526027815260200180612c636027913960400191505060405180910390fd5b6116e484611b92565b15806116f657506116f483611b92565b155b156117035750600061191e565b600954600654116117165750600061191e565b60006117228585610f9e565b73ffffffffffffffffffffffffffffffffffffffff81166000908152600f6020526040812054601080549394509192811061175957fe5b60009182526020909120600390910201805490915073ffffffffffffffffffffffffffffffffffffffff838116911614158061179a5750600281015460ff16155b156117aa5760009250505061191e565b60006117b687876122be565b905060006117ca868363ffffffff61235116565b600c549091506000906117f6908990849073ffffffffffffffffffffffffffffffffffffffff16611167565b9050611820606461181486600101548461239390919063ffffffff16565b9063ffffffff61235116565b905061183960075460085461239390919063ffffffff16565b60095461184c908363ffffffff61240616565b11156118605760009550505050505061191e565b73ffffffffffffffffffffffffffffffffffffffff8a166000908152600e6020526040902054611896908263ffffffff61240616565b73ffffffffffffffffffffffffffffffffffffffff808c166000818152600e60209081526040918290209490945580519182528c831693820193909352908a1681830152606081018990526080810183905290517f4f2387711860ea50b6a0e4e7e3a1aadf0685d1c9261c203c2e6a48b2004fd9779181900360a00190a16001955050505050505b949350505050565b6000806119338484610f9e565b73ffffffffffffffffffffffffffffffffffffffff81166000908152600f6020526040812054601080549394509192811061196a57fe5b60009182526020909120600390910201805490915073ffffffffffffffffffffffffffffffffffffffff8381169116146119a957600092505050610f98565b506001949350505050565b6119bd3361096d565b611a2857604080517f08c379a000000000000000000000000000000000000000000000000000000000815260206004820181905260248201527f4f776e61626c653a2063616c6c6572206973206e6f7420746865206f776e6572604482015290519081900360640190fd5b8060108381548110611a3657fe5b9060005260206000209060030201600101819055505050565b611a583361096d565b611ac357604080517f08c379a000000000000000000000000000000000000000000000000000000000815260206004820181905260248201527f4f776e61626c653a2063616c6c6572206973206e6f7420746865206f776e6572604482015290519081900360640190fd5b73ffffffffffffffffffffffffffffffffffffffff8116611b2f576040517f08c379a000000000000000000000000000000000000000000000000000000000815260040180806020018281038252602a815260200180612b4b602a913960400191505060405180910390fd5b600480547fffffffffffffffffffffffff00000000000000000000000000000000000000001673ffffffffffffffffffffffffffffffffffffffff92909216919091179055565b60035473ffffffffffffffffffffffffffffffffffffffff1681565b6000610f9860018361247a565b611ba83361096d565b611c1357604080517f08c379a000000000000000000000000000000000000000000000000000000000815260206004820181905260248201527f4f776e61626c653a2063616c6c6572206973206e6f7420746865206f776e6572604482015290519081900360640190fd5b73ffffffffffffffffffffffffffffffffffffffff8116611c9557604080517f08c379a000000000000000000000000000000000000000000000000000000000815260206004820152601960248201527f5f7061697220697320746865207a65726f206164647265737300000000000000604482015290519081900360640190fd5b6040805160608101825273ffffffffffffffffffffffffffffffffffffffff838116825260208201858152600193830184815260108054808701825560009190915293517f1b6847dc741a1b0cd08d278845f9d819d87b734759afb55fe2de5cb82a9ae672600390950294850180547fffffffffffffffffffffffff0000000000000000000000000000000000000000169190941617909255517f1b6847dc741a1b0cd08d278845f9d819d87b734759afb55fe2de5cb82a9ae673830155517f1b6847dc741a1b0cd08d278845f9d819d87b734759afb55fe2de5cb82a9ae67490910180547fffffffffffffffffffffffffffffffffffffffffffffffffffffffffffffff0016911515919091179055611dad610ef0565b73ffffffffffffffffffffffffffffffffffffffff9092166000908152600f602052604090209103905550565b600060095460065411611e4e57604080517f08c379a000000000000000000000000000000000000000000000000000000000815260206004820152601f60248201527f537761704665655265776172643a204d696e656420616c6c20746f6b656e7300604482015290519081900360640190fd5b336000908152600e6020526040902054600754600854611e739163ffffffff61239316565b600954611e86908363ffffffff61240616565b1115611edd576040517f08c379a000000000000000000000000000000000000000000000000000000000815260040180806020018281038252602d815260200180612beb602d913960400191505060405180910390fd5b611eea338287878761249c565b801561202557600a54604080517f40c10f1900000000000000000000000000000000000000000000000000000000815233600482015260248101849052905173ffffffffffffffffffffffffffffffffffffffff909216916340c10f19916044808201926020929091908290030181600087803b158015611f6a57600080fd5b505af1158015611f7e573d6000803e3d6000fd5b505050506040513d6020811015611f9457600080fd5b5050336000908152600e6020526040902054611fb6908263ffffffff6126d316565b336000818152600e602090815260409182902093909355805191825291810183905281517f884edad9ce6fa2440d8a54cc123490eb96d2768479d49ff9c7366125a9424364929181900390910190a1600954612018908263ffffffff61240616565b6009555060019050611661565b506000949350505050565b6120393361096d565b6120a457604080517f08c379a000000000000000000000000000000000000000000000000000000000815260206004820181905260248201527f4f776e61626c653a2063616c6c6572206973206e6f7420746865206f776e6572604482015290519081900360640190fd5b6120ad81612715565b50565b60006120bb3361096d565b61212657604080517f08c379a000000000000000000000000000000000000000000000000000000000815260206004820181905260248201527f4f776e61626c653a2063616c6c6572206973206e6f7420746865206f776e6572604482015290519081900360640190fd5b73ffffffffffffffffffffffffffffffffffffffff8216612192576040517f08c379a0000000000000000000000000000000000000000000000000000000008152600401808060200182810382526025815260200180612b9b6025913960400191505060405180910390fd5b610f9860018361280e565b60045473ffffffffffffffffffffffffffffffffffffffff1681565b6121c23361096d565b61222d57604080517f08c379a000000000000000000000000000000000000000000000000000000000815260206004820181905260248201527f4f776e61626c653a2063616c6c6572206973206e6f7420746865206f776e6572604482015290519081900360640190fd5b806010838154811061223b57fe5b6000918252602090912060039091020160020180547fffffffffffffffffffffffffffffffffffffffffffffffffffffffffffffff00169115159190911790555050565b60075481565b60006116618383612830565b60006116618373ffffffffffffffffffffffffffffffffffffffff84166128ae565b6000610f9882612992565b60006116616122cd8484610f9e565b73ffffffffffffffffffffffffffffffffffffffff166354cf2aeb6040518163ffffffff1660e01b815260040160206040518083038186803b15801561231257600080fd5b505afa158015612326573d6000803e3d6000fd5b505050506040513d602081101561233c57600080fd5b50516103e89063ffffffff908116906126d316565b600061166183836040518060400160405280601a81526020017f536166654d6174683a206469766973696f6e206279207a65726f000000000000815250612996565b6000826123a257506000610f98565b828202828482816123af57fe5b0414611661576040517f08c379a0000000000000000000000000000000000000000000000000000000008152600401808060200182810382526021815260200180612c426021913960400191505060405180910390fd5b60008282018381101561166157604080517f08c379a000000000000000000000000000000000000000000000000000000000815260206004820152601b60248201527f536166654d6174683a206164646974696f6e206f766572666c6f770000000000604482015290519081900360640190fd5b60006116618373ffffffffffffffffffffffffffffffffffffffff8416612a52565b73ffffffffffffffffffffffffffffffffffffffff85166000908152600d602090815260408083208054600180820190925582517fffffffffffffffffffffffffffffffffffffffff00000000000000000000000060608c901b1681860152603481018a9052605480820192909252835180820390920182526074810184528151918501919091207f19457468657265756d205369676e6564204d6573736167653a0a333200000000609483015260b0808301919091528351808303909101815260d082018085528151918601919091209086905260f0820180855281905260ff8916610110830152610130820188905261015082018790529251929493919261017080830193927fffffffffffffffffffffffffffffffffffffffffffffffffffffffffffffffe08301929081900390910190855afa1580156125e4573d6000803e3d6000fd5b50506040517fffffffffffffffffffffffffffffffffffffffffffffffffffffffffffffffe0015191505073ffffffffffffffffffffffffffffffffffffffff81161580159061265f57508673ffffffffffffffffffffffffffffffffffffffff168173ffffffffffffffffffffffffffffffffffffffff16145b6126ca57604080517f08c379a000000000000000000000000000000000000000000000000000000000815260206004820181905260248201527f537761704665655265776172643a20494e56414c49445f5349474e4154555245604482015290519081900360640190fd5b50505050505050565b600061166183836040518060400160405280601e81526020017f536166654d6174683a207375627472616374696f6e206f766572666c6f770000815250612a6a565b73ffffffffffffffffffffffffffffffffffffffff8116612781576040517f08c379a0000000000000000000000000000000000000000000000000000000008152600401808060200182810382526026815260200180612b756026913960400191505060405180910390fd5b6000805460405173ffffffffffffffffffffffffffffffffffffffff808516939216917f8be0079c531659141344cd1fd0a4f28419497f9722a3daafe3b4186f6b6457e091a3600080547fffffffffffffffffffffffff00000000000000000000000000000000000000001673ffffffffffffffffffffffffffffffffffffffff92909216919091179055565b60006116618373ffffffffffffffffffffffffffffffffffffffff8416612ade565b8154600090821061288c576040517f08c379a0000000000000000000000000000000000000000000000000000000008152600401808060200182810382526022815260200180612b296022913960400191505060405180910390fd5b82600001828154811061289b57fe5b9060005260206000200154905092915050565b600081815260018301602052604081205480156129885783547fffffffffffffffffffffffffffffffffffffffffffffffffffffffffffffffff80830191908101906000908790839081106128ff57fe5b906000526020600020015490508087600001848154811061291c57fe5b60009182526020808320909101929092558281526001898101909252604090209084019055865487908061294c57fe5b60019003818190600052602060002001600090559055866001016000878152602001908152602001600020600090556001945050505050610f98565b6000915050610f98565b5490565b60008183612a3c576040517f08c379a00000000000000000000000000000000000000000000000000000000081526004018080602001828103825283818151815260200191508051906020019080838360005b83811015612a015781810151838201526020016129e9565b50505050905090810190601f168015612a2e5780820380516001836020036101000a031916815260200191505b509250505060405180910390fd5b506000838581612a4857fe5b0495945050505050565b60009081526001919091016020526040902054151590565b60008184841115612ad6576040517f08c379a0000000000000000000000000000000000000000000000000000000008152602060048201818152835160248401528351909283926044909101919085019080838360008315612a015781810151838201526020016129e9565b505050900390565b6000612aea8383612a52565b612b2057508154600181810184556000848152602080822090930184905584548482528286019093526040902091909155610f98565b506000610f9856fe456e756d657261626c655365743a20696e646578206f7574206f6620626f756e6473537761704d696e696e673a206e657720726f7574657220697320746865207a65726f20616464726573734f776e61626c653a206e6577206f776e657220697320746865207a65726f2061646472657373537761704d696e696e673a20746f6b656e20697320746865207a65726f2061646472657373537761704d696e696e673a206e657720666163746f727920697320746865207a65726f2061646472657373537761704665655265776172643a204d696e656420616c6c20746f6b656e7320696e2074686973207068617365537761704d696e696e673a206e6577206f7261636c6520697320746865207a65726f2061646472657373536166654d6174683a206d756c7469706c69636174696f6e206f766572666c6f77537761704665655265776172643a2063616c6c6572206973206e6f742074686520726f7574657253544c5953776170466163746f72793a204944454e544943414c5f414444524553534553a26469706673582212206dfd284d2e9cabcd7871b931a36ffe26a2950ec3e2a3a0352d63c162e41b285664736f6c63430006060033",
  "immutableReferences": {},
  "source": "pragma solidity 0.6.6;\n\nimport \"./Ownable.sol\";\nimport \"./libs/SafeMath.sol\";\nimport \"./libs/EnumerableSet.sol\";\nimport \"./interfaces/IERC20.sol\";\nimport \"./interfaces/IOracle.sol\";\n\ninterface ISTLYFactory {\n    event PairCreated(address indexed token0, address indexed token1, address pair, uint);\n\n    function feeTo() external view returns (address);\n    function feeToSetter() external view returns (address);\n    function INIT_CODE_HASH() external pure returns (bytes32);\n\n    function getPair(address tokenA, address tokenB) external view returns (address pair);\n    function allPairs(uint) external view returns (address pair);\n    function allPairsLength() external view returns (uint);\n\n    function createPair(address tokenA, address tokenB) external returns (address pair);\n\n    function setFeeTo(address) external;\n    function setFeeToSetter(address) external;\n    function setDevFee(address pair, uint8 _devFee) external;\n    function setSwapFee(address pair, uint32 swapFee) external;\n}\n\ninterface ISTLYPair {\n    event Approval(address indexed owner, address indexed spender, uint value);\n    event Transfer(address indexed from, address indexed to, uint value);\n\n    function name() external pure returns (string memory);\n    function symbol() external pure returns (string memory);\n    function decimals() external pure returns (uint8);\n    function totalSupply() external view returns (uint);\n    function balanceOf(address owner) external view returns (uint);\n    function allowance(address owner, address spender) external view returns (uint);\n\n    function approve(address spender, uint value) external returns (bool);\n    function transfer(address to, uint value) external returns (bool);\n    function transferFrom(address from, address to, uint value) external returns (bool);\n\n    function DOMAIN_SEPARATOR() external view returns (bytes32);\n    function PERMIT_TYPEHASH() external pure returns (bytes32);\n    function nonces(address owner) external view returns (uint);\n\n    function permit(address owner, address spender, uint value, uint deadline, uint8 v, bytes32 r, bytes32 s) external;\n\n    event Mint(address indexed sender, uint amount0, uint amount1);\n    event Burn(address indexed sender, uint amount0, uint amount1, address indexed to);\n    event Swap(\n        address indexed sender,\n        uint amount0In,\n        uint amount1In,\n        uint amount0Out,\n        uint amount1Out,\n        address indexed to\n    );\n    event Sync(uint112 reserve0, uint112 reserve1);\n\n    function MINIMUM_LIQUIDITY() external pure returns (uint);\n    function factory() external view returns (address);\n    function token0() external view returns (address);\n    function token1() external view returns (address);\n    function getReserves() external view returns (uint112 reserve0, uint112 reserve1, uint32 blockTimestampLast);\n    function price0CumulativeLast() external view returns (uint);\n    function price1CumulativeLast() external view returns (uint);\n    function kLast() external view returns (uint);\n    function swapFee() external view returns (uint32);\n    function devFee() external view returns (uint32);\n\n    function mint(address to) external returns (uint liquidity);\n    function burn(address to) external returns (uint amount0, uint amount1);\n    function swap(uint amount0Out, uint amount1Out, address to, bytes calldata data) external;\n    function skim(address to) external;\n    function sync() external;\n\n    function initialize(address, address) external;\n    function setSwapFee(uint32) external;\n    function setDevFee(uint32) external;\n}\n\ninterface IStlyToken is IERC20 {\n    function mint(address to, uint256 amount) external returns (bool);\n}\n\ncontract SwapFeeReward is Ownable{\n    using SafeMath for uint256;\n    using EnumerableSet for EnumerableSet.AddressSet;\n    EnumerableSet.AddressSet private _whitelist;\n\n    address public factory;\n    address public router;\n    bytes32 public INIT_CODE_HASH;\n    uint256 public maxMiningAmount  = 177000000 * 1e18;\n    uint256 public maxMiningInPhase = 5000 * 1e18;\n    uint public currentPhase = 1;\n    uint256 public totalMined = 0;\n    IStlyToken public stlyToken;\n    IOracle public oracle;\n    address public targetToken;\n    \n    mapping(address => uint) public nonces;\n    mapping(address => uint256) private _balances;\n    mapping(address => uint256) public pairOfPid;\n    \n    struct PairsList {\n        address pair;\n        uint256 percentReward;\n        bool enabled;\n    }\n    PairsList[] public pairsList;\n\n    event Withdraw(address userAddress, uint256 amount);\n    event Rewarded(address account, address input, address output, uint256 amount, uint256 quantity);\n\n    modifier onlyRouter() {\n        require(msg.sender == router, \"SwapFeeReward: caller is not the router\");\n        _;\n    }\n\n    constructor(\n        address _factory,\n        address _router,\n        bytes32 _INIT_CODE_HASH,\n        IStlyToken _stlyToken,\n        IOracle _Oracle,\n        address _targetToken\n    ) public {\n        factory = _factory;\n        router = _router;\n        INIT_CODE_HASH = _INIT_CODE_HASH;\n        stlyToken = _stlyToken;\n        oracle = _Oracle;\n        targetToken = _targetToken;\n    }\n\n    function sortTokens(address tokenA, address tokenB) public pure returns (address token0, address token1) {\n        require(tokenA != tokenB, 'STLYSwapFactory: IDENTICAL_ADDRESSES');\n        (token0, token1) = tokenA < tokenB ? (tokenA, tokenB) : (tokenB, tokenA);\n        require(token0 != address(0), 'STLYSwapFactory: ZERO_ADDRESS');\n    }\n\n    function pairFor(address tokenA, address tokenB) public view returns (address pair) {\n        (address token0, address token1) = sortTokens(tokenA, tokenB);\n        pair = address(uint(keccak256(abi.encodePacked(\n                hex'ff',\n                factory,\n                keccak256(abi.encodePacked(token0, token1)),\n                INIT_CODE_HASH\n            ))));\n    }\n\n    function getSwapFee(address tokenA, address tokenB) internal view returns (uint swapFee) {\n        swapFee = uint(1000).sub(ISTLYPair(pairFor(tokenA, tokenB)).swapFee());\n    }\n    \n    function setPhase(uint _newPhase) public onlyOwner returns(bool){\n        currentPhase = _newPhase;\n        return true;\n    }\n\n    function checkPairExist(address tokenA, address tokenB) public view returns (bool) {\n        address pair = pairFor(tokenA, tokenB);\n        PairsList storage pool = pairsList[pairOfPid[pair]];\n        if (pool.pair != pair) {\n            return false;\n        }\n        return true;\n    }\n\n    function swap(address account, address input, address output, uint256 amount) public onlyRouter returns (bool) {\n        if (!isWhitelist(input) || !isWhitelist(output)) {\n            return false;\n        }\n        if (maxMiningAmount <= totalMined){\n            return false;\n        }\n        address pair = pairFor(input, output);\n        PairsList storage pool = pairsList[pairOfPid[pair]];\n        if (pool.pair != pair || pool.enabled == false) {\n            return false;\n        }\n        uint256 pairFee = getSwapFee(input, output);\n        uint256 fee = amount.div(pairFee);\n        uint256 quantity = getQuantity(output, fee, targetToken);\n        quantity = quantity.mul(pool.percentReward).div(100);\n        if (totalMined.add(quantity) > currentPhase.mul(maxMiningInPhase)){\n            return false;\n        }\n        _balances[account] = _balances[account].add(quantity);\n        emit Rewarded(account, input, output, amount, quantity);\n        return true;\n    }\n\n    function rewardBalance(address account) public view returns(uint256){\n        return _balances[account];\n    }\n\n    function permit(address spender, uint value, uint8 v, bytes32 r, bytes32 s) private {\n        bytes32 message = keccak256(abi.encodePacked(\"\\x19Ethereum Signed Message:\\n32\", keccak256(abi.encodePacked(spender, value, nonces[spender]++))));\n        address recoveredAddress = ecrecover(message, v, r, s);\n        require(recoveredAddress != address(0) && recoveredAddress == spender, 'SwapFeeReward: INVALID_SIGNATURE');\n    }\n\n    function withdraw(uint8 v, bytes32 r, bytes32 s) public returns(bool){\n        require(maxMiningAmount > totalMined, 'SwapFeeReward: Mined all tokens');\n        uint256 balance = _balances[msg.sender];\n        require(totalMined.add(balance) <= currentPhase.mul(maxMiningInPhase), 'SwapFeeReward: Mined all tokens in this phase');\n        permit(msg.sender, balance, v, r, s);\n        if (balance > 0){\n            stlyToken.mint(msg.sender, balance);\n            _balances[msg.sender] = _balances[msg.sender].sub(balance);\n            emit Withdraw(msg.sender, balance);\n            totalMined = totalMined.add(balance);\n            return true;\n        }\n        return false;\n    }\n\n    function getQuantity(address outputToken, uint256 outputAmount, address anchorToken) public view returns (uint256) {\n        uint256 quantity = 0;\n        if (outputToken == anchorToken) {\n            quantity = outputAmount;\n        } else if (ISTLYFactory(factory).getPair(outputToken, anchorToken) != address(0) && checkPairExist(outputToken, anchorToken)) {\n            quantity = IOracle(oracle).consult(outputToken, outputAmount, anchorToken);\n        } else {\n            uint256 length = getWhitelistLength();\n            for (uint256 index = 0; index < length; index++) {\n                address intermediate = getWhitelist(index);\n                if (ISTLYFactory(factory).getPair(outputToken, intermediate) != address(0) && ISTLYFactory(factory).getPair(intermediate, anchorToken) != address(0) && checkPairExist(intermediate, anchorToken)) {\n                    uint256 interQuantity = IOracle(oracle).consult(outputToken, outputAmount, intermediate);\n                    quantity = IOracle(oracle).consult(intermediate, interQuantity, anchorToken);\n                    break;\n                }\n            }\n        }\n        return quantity;\n    }\n\n    function addWhitelist(address _addToken) public onlyOwner returns (bool) {\n        require(_addToken != address(0), \"SwapMining: token is the zero address\");\n        return EnumerableSet.add(_whitelist, _addToken);\n    }\n\n    function delWhitelist(address _delToken) public onlyOwner returns (bool) {\n        require(_delToken != address(0), \"SwapMining: token is the zero address\");\n        return EnumerableSet.remove(_whitelist, _delToken);\n    }\n\n    function getWhitelistLength() public view returns (uint256) {\n        return EnumerableSet.length(_whitelist);\n    }\n\n    function isWhitelist(address _token) public view returns (bool) {\n        return EnumerableSet.contains(_whitelist, _token);\n    }\n\n    function getWhitelist(uint256 _index) public view returns (address){\n        require(_index <= getWhitelistLength() - 1, \"SwapMining: index out of bounds\");\n        return EnumerableSet.at(_whitelist, _index);\n    }\n\n    function setRouter(address newRouter) public onlyOwner {\n        require(newRouter != address(0), \"SwapMining: new router is the zero address\");\n        router = newRouter;\n    }\n\n    function setOracle(IOracle _oracle) public onlyOwner {\n        require(address(_oracle) != address(0), \"SwapMining: new oracle is the zero address\");\n        oracle = _oracle;\n    }\n\n    function setFactory(address _factory) public onlyOwner {\n        require(_factory != address(0), \"SwapMining: new factory is the zero address\");\n        factory = _factory;\n    }\n\n    function setInitCodeHash(bytes32 _INIT_CODE_HASH) public onlyOwner {\n        INIT_CODE_HASH = _INIT_CODE_HASH;\n    }\n\n    function pairsListLength() public view returns (uint256) {\n        return pairsList.length;\n    }\n\n    function addPair(uint256 _percentReward, address _pair) public onlyOwner {\n        require(_pair != address(0), \"_pair is the zero address\");\n        pairsList.push(\n            PairsList({\n                pair: _pair,\n                percentReward: _percentReward,\n                enabled: true\n            })\n        );\n        pairOfPid[_pair] = pairsListLength() - 1;\n\n    }\n\n    function setPair(uint256 _pid, uint256 _percentReward) public onlyOwner {\n        pairsList[_pid].percentReward = _percentReward;\n    }\n\n    function setPairEnabled(uint256 _pid, bool _enabled) public onlyOwner {\n        pairsList[_pid].enabled = _enabled;\n    }\n}",
  "sourcePath": "/home/ubuntu/work/starly_finance_project/starly-swap-fee-reward/contracts/SwapFeeReward.sol",
  "compiler": {
    "name": "solc",
    "version": "0.6.6+commit.6c089d02.Emscripten.clang"
  },
  "schemaVersion": "3.4.4",
  "updatedAt": "2022-01-28T11:56:56.131Z",
  "networkType": "ethereum",
  "devdoc": {
    "methods": {}
  },
  "userdoc": {
    "methods": {}
  }
}